:020000040800F2
:100000009006002031020008B9080008BD0700086A
:10001000B508000869060008650E00080000000029
:10002000000000000000000000000000610A00085D
:10003000DD0600080000000035090008790B000803
:100040004B0200084B0200084B0200084B0200085C
:100050004B0200084B0200084B0200084B0200084C
:100060004B0200084B0200084B0200084B0200083C
:100070004B0200084B0200084B0200084B0200082C
:100080004B0200084B0200084B0200084B0200081C
:100090004B0200084B0200084B0200084B0200080C
:1000A0004B0200084B0200084B0200084B020008FC
:1000B0004B0200084B0200084B0200084B020008EC
:1000C0004B0200084B0200084B0200084B020008DC
:1000D0004B0200084B0200084B0200084B020008CC
:1000E0004B0200084B0200084B0200084B020008BC
:1000F0004B0200084B0200084B0200084B020008AC
:100100004B0200084B0200084B0200084B0200089B
:100110004B0200084B0200084B0200084B0200088B
:100120004B0200084B0200084B0200084B0200087B
:100130004B0200084B0200084B0200084B0200086B
:100140004B0200084B0200084B0200084B0200085B
:100150004B0200084B0200084B0200084B0200084B
:100160004B0200084B0200084B0200084B0200083B
:100170004B0200084B0200084B0200084B0200082B
:100180004B0200084B02000800F002F800F041F8B2
:100190000AA090E8000C82448344AAF10107DA45E2
:1001A00001D100F036F8AFF2090EBAE80F0013F0F3
:1001B000010F18BFFB1A43F001031847481600004F
:1001C00068160000103A24BF78C878C1FAD85207E0
:1001D00024BF30C830C144BF04680C6070470000C1
:1001E0000023002400250026103A28BF78C1FBD840
:1001F000520728BF30C148BF0B607047642900F028
:100200007980002070471FB501F0A2FA1FBD10B51C
:1002100010BD00F037F91146FFF7F5FF00F094FE2E
:1002200000F055F903B4FFF7F2FF03BC00F01CFE29
:100230000948804709480047FEE7FEE7FEE7FEE77A
:10024000FEE7FEE7FEE7FEE7FEE7FEE704480549B6
:10025000054A064B704700007D0B00088901000825
:1002600090000020900600209002002090020020C4
:10027000704700000FB4044910B503AA029800F0BB
:10028000D3F810BC5DF814FB040000202DE9F04108
:100290000E460446002020622046E168884730B3BD
:1002A000252805D0D4E901219047206A401CF2E7B7
:1002B000E168204600278847050018D0A5F14100D5
:1002C000192802D820354FF40067324629462046C7
:1002D0002760FFF793FF40B1012804D0F61D26F0F8
:1002E00007060836D8E7361DD6E72846DAE7206A3B
:1002F000BDE8F0812DE9F04106460024106875291B
:10030000314616A510D0AFF30080002802DA404233
:1003100013A507E031688A0701D512A502E0490755
:1003200004D511A5012401E0AFF3008000210A22C9
:1003300006F1240709E0B0FBF2FCB0FBF2F302FB8C
:100340001C00303078541846491C0028F3D123464D
:100350002A463046BDE8F04100F00CB8000000002D
:100360002D0000002B0000002000000070477047A7
:10037000704770472DE9F0470D469946924604466E
:1003800000F124080168880604D5E06921F0100115
:10039000216000E00120A84201DD471B00E00027AA
:1003A000A1697A1902EB0900081AA0612078C00639
:1003B00002D42046AFF30080002608E0D4E90121F2
:1003C0001AF806009047206A401C761C20624E45B1
:1003D000F4DB2078C0060AD52046AFF3008006E0A3
:1003E000D4E9012130209047206A401C2062381E49
:1003F000A7F10107F4DC07E0D4E9012118F80500B2
:100400009047206A401C2062281EA5F10105F3DCFC
:100410002046AFF300802078000602D50220BDE818
:10042000F0870120FBE70000074B70B50D467B44C9
:1004300000F011F80446284600F020F810B14FF003
:10044000FF3070BD204670BDFB0A000001694A1CE8
:1004500002610878704700B58FB0CDE90131002105
:10046000059105497944CDE9031011466846FFF727
:100470000DFF0FB000BD0000E5FFFFFF007B00F0A7
:1004800080007047754600F02BF8AE4605006946BF
:10049000534620F00700854618B020B5FFF7D6FE7A
:1004A000BDE820404FF000064FF000074FF0000875
:1004B0004FF0000B21F00701AC46ACE8C009ACE8F6
:1004C000C009ACE8C009ACE8C0098D46704710B55A
:1004D0000446AFF300802046BDE81040FFF7A2BEFF
:1004E000004870473000002021B1826842F00102CC
:1004F000826003E0826822F001028260704700009F
:100500000021084A1168084A1140D0E900231A4323
:1005100083681A43C3681A431143044AC2F8041398
:100520007047000004230140E030FCFF0020014040
:1005300021B1826842F48072826003E0826822F412
:1005400080728260704721B1826842F400728260DA
:1005500003E0826822F400728260704730B5024680
:10056000002000235068104C20400D790C6844EAAC
:1005700005242043506090680C4C2040D1E903547E
:100580002C438D682C434D7944EA45042043906008
:10059000D06A20F470000C7D641EE4B2234340EA6C
:1005A0000350D06230BD0000FFFEFFFCFDF7FFC02E
:1005B000F0B504460D4600200021092D11DDE0684C
:1005C000A5F10A0606EB4607072606FA07F1884357
:1005D000A5F10A0606EB460603FA06F10843E060B9
:1005E0000CE0206905EB4507072606FA07F188436A
:1005F00005EB450603FA06F108432061072A0FDAE6
:10060000606B561E06EB86071F2606FA07F1884325
:10061000561E06EB860605FA06F10843606322E0E3
:100620000D2A0FDA206BD61F06EB86071F2606FA67
:1006300007F18843D61F06EB860605FA06F1084344
:10064000206310E0E06AA2F10D0606EB86071F2684
:1006500006FA07F18843A2F10D0606EB860605FAB5
:1006600006F10843E062F0BD00BFFEE721B1026879
:1006700042F00102026003E0026822F0010202601F
:100680007047000010B500220268134B1A40CC6876
:100690000B6823434C6923438C692343CC69234370
:1006A0000C6A23434C6A23438C6A23434C6B2343D9
:1006B0008C6B23431A430260426922F00702D1E99E
:1006C0000B3423431A4342610B6943604B688360D8
:1006D0008B68C36010BD00003F801CF07047F0B510
:1006E0000A4600210023002400BF3DE0012505FA51
:1006F00001F3156805EA03049C4234D105684F00F4
:100700000326BE40B543056015794E00B540066826
:10071000354305601579012D02D01579022D16D1CA
:1007200085684F000326BE40B543856055794E006D
:10073000B540866835438560456801268E40B543DF
:100740004560456896798E40B6B235434560C568C8
:100750004F000326BE40B543C560D5794E00B54075
:10076000C6683543C560491C1029BFD3F0BDF0B53C
:10077000002300244D07ED0E02FA05F3CE1000F120
:10078000200555F826504E07F70E0F26BE40B543FC
:10079000CF1000F1200646F82750CE1000F12005BA
:1007A00055F8265045EA0304CE1000F1200545F81F
:1007B0002640F0BD418370470183704700BFFEE7CC
:1007C000014600200A2934D2DFE801F005090E12A3
:1007D000171B20252A2E184A1268D0B22AE0164A82
:1007E000121F1268D0B225E0144A1268D0B221E07C
:1007F000124A121F1268D0B21CE0114A1268D0B21D
:1008000018E00D4A083A1268D0B213E00A4A103ACA
:100810001268D0B20EE0084A143A1268D0B209E069
:10082000084A1268D0B205E0064A121F1268D0B218
:1008300000E000BF00BF7047140241420482404202
:1008400030824242180242421CB50121502000F081
:1008500073F84FF4C070009001208DF80400002060
:100860008DF806008DF8070003208DF80500694615
:100870000E48FFF734FF0220009001208DF804009D
:1008800000208DF806008DF8070003208DF8050084
:1008900069460748FFF723FF4FF4C0710348FFF78D
:1008A00089FF02210248FFF785FF1CBD00100240AE
:1008B0000018024000BFFEE77047000070B500213D
:1008C00000230F22C4781CB3174C246804F4E0649E
:1008D000C4F5E064C4F30721C1F10404E3B20A41A2
:1008E00044789C40E1B28478144021430C07210EE7
:1008F0000E4C05786155047804F01F050124AC40C6
:1009000005786D11AD0005F1E025C5F8004109E05D
:10091000047804F01F050124AC40054D06787611DB
:1009200045F8264070BD00000CED00E000E400E05A
:1009300080E100E07047000029B1064A12680243D6
:10094000044B1A6004E0034A12688243014B1A60A8
:10095000704700003038024029B1064A126802434D
:10096000044B1A6004E0034A12688243014B1A6088
:100970007047000044380240F0B5002100220024F6
:10098000022500260223324F3F6807F00C0121B1F7
:10099000042905D0082937D105E02E4F076036E03D
:1009A0002D4F076033E02A4F3F1F3F68C7F3805643
:1009B000274F3F1F3F6807F03F036EB1264FB7FB3D
:1009C000F3F7DFF88CC0ACF1040CDCF800C0CCF31A
:1009D000881C07FB0CF40CE01E4FB7FBF3F7DFF8A5
:1009E00070C0ACF1040CDCF800C0CCF3881C07FB31
:1009F0000CF4174F3F1F3F68C7F301477F1C7D0072
:100A0000B4FBF5F7076002E0124F076000BF00BFBC
:100A10000F4F3F6807F0F0010909104F7A5C076833
:100A2000D74047600A4F3F6807F4E051890A0B4FEF
:100A30007A5C4768D7408760054F3F6807F460419C
:100A4000490B064F7A5C4768D740C760F0BD00008D
:100A5000083802400024F40000127A000A00002046
:100A6000704700000CB500200190009034480068E9
:100A700040F480303249086000BF3148006800F41B
:100A8000003000900198401C0190009818B901981E
:100A9000B0F5A04FF1D12A48006800F4003010B141
:100AA0000120009001E0002000900098012846D12C
:100AB00023484030006840F08050214940310860B0
:100AC0002048006840F440401E4908601C48083037
:100AD00000681B49083108600846006840F400407F
:100AE00008600846006840F4A05008601648091FD6
:100AF0000860081F006840F08070091F086000BF90
:100B00000F48006800F000700028F9D040F205702E
:100B10000E4908600A480830006820F003000849C0
:100B2000083108600846006840F00200086000BF15
:100B300003480830006800F00C000828F8D10CBD0C
:100B4000003802400070004008544007003C02405A
:100B5000042808D14FF0E021096941F004014FF069
:100B6000E022116107E04FF0E021096921F0040162
:100B70004FF0E022116170477047000010B5154832
:100B8000006840F47000134908601348006840F0A2
:100B900001001149086000200F49083108600E4823
:100BA00000680E4908400C4908600D48091D08609E
:100BB000081F006820F48020091F086000200649F3
:100BC0000C310860FFF74EFF4FF00060014980399B
:100BD000086010BD88ED00E000380240FFFFF6FE1F
:100BE0001030002421B1028842F00102028004E0AA
:100BF00002884FF6FE731A400280704731B1B0F898
:100C0000442042F40042A0F8442005E0B0F844201B
:100C1000C2F30E02A0F844207047000070B5002413
:100C200000220023058C4FF6FE7635400584028CA9
:100C30008388048B4FF68F752C40B51E2C400D8891
:100C40002C43751E2A408D892A434D882A43104D16
:100C5000A84202D00F4DA84213D14FF6F7752A4093
:100C6000CD892A434FF6FB752A408D882A434FF6DB
:100C7000FF652B404FF6FF552B400D8A2B434D8AC5
:100C80002B43838004838D684563028470BD00001C
:100C9000000001400004014000220288184B9842E5
:100CA0000ED0184B98420BD0B0F1804F08D0164BA5
:100CB000984205D0154B984202D0154B984204D16A
:100CC0004FF68F731A404B881A43124B984207D045
:100CD000114B984204D04FF6FF431A400B891A4338
:100CE00002804B68C3620B880385054B984202D093
:100CF000044B984201D18B7A03860123838270478B
:100D000000000140000401400004004000080040D1
:100D1000000C004000100040001400404FF0FF3174
:100D2000416000210180018141808172704721B1C1
:100D3000828942F40052828104E082894DF6FF7379
:100D40001A4082817047F0B5034600240026002532
:100D5000002040F66A17B94200D100BF1846C1F31F
:100D6000421401F01F06012707FA06F5012C01D1F4
:100D70000C3004E0022C01D1103000E014301AB124
:100D800007682F43076002E00768AF430760F0BDC4
:100D90002DE9FF4705460E460024A14600BFA046A8
:100DA000B08900B100BF2C8A24F44054F088044379
:100DB0002C82AC8941F20C608443B08831890843AD
:100DC000718908430443AC81AC8A24F44074B0892F
:100DD0000443AC826846FFF7CFFD2048854202D02D
:100DE0001F48854202D1DDF80C9001E0DDF8089043
:100DF000A88900F4004040B109EBC90000EB0910DC
:100E000031684900B0FBF1F707E009EBC90000EBDE
:100E1000091031688900B0FBF1F76420B7FBF0F0EE
:100E200004012009642101FB1078A88900F4004026
:100E300040B1322000EBC800B0FBF1F000F0070039
:100E4000044308E0322000EB08106421B0FBF1F00D
:100E500000F00F0004432C81BDE8FF870010014023
:100E60000014014000BFFEE700BF704710B5044604
:100E70006FF00400FFF76CFEE11704EB5171C1F352
:100E8000C701074A11701046007800EB4001C1EB22
:100E9000C0104FF6FF7101EAC0000249088010BD82
:100EA000000000200200002070B504464FF40770D7
:100EB00094FBF0F0C6B24FF4077094FBF0F100FB26
:100EC000114085B205E04FF4077000F009F8701E7C
:100ED000C6B2002EF7D115B1284600F001F870BD5A
:100EE0000146114A12884A434FF0E0235A6100221A
:100EF0009A611A46126942F001021A6100BF4FF06E
:100F0000E022106900F001021AB100F48032002AD8
:100F1000F5D04FF0E022126922F001024FF0E023F9
:100F20001A6100229A6170470200002000BF054A42
:100F3000128802F04002002AF9D0C2B2014B9A8016
:100F40007047000000100140A820FFF78FFFFFF757
:100F50007BFC4FF4E13000F0A5FB00F099FB00F0C2
:100F600019FB0EE007480068C0430749C1F8840236
:100F7000C820FFF799FF00F035F900F007F800F0FE
:100F80004FF8EFE7840243420000434210B509A046
:100F9000FFF770F908A0FFF76DF91448008A0111F6
:100FA00013A0FFF767F903A0FFF764F901A0FFF7AB
:100FB00061F910BD0D0A00003D3D3D3D3D3D3D3D0B
:100FC00020526F626F7420477261792044656275A8
:100FD0006720496E666F6D6174696F6E203D3D3D9F
:100FE0003D3D3D3D3D090D0A000000001C00002074
:100FF0003D3D3D20202020526F626F74204772617A
:10100000793A256420202020202020202020202024
:10101000202020202020202020203D3D3D0D0A00C2
:1010200070B527A0FFF726F926A0FFF723F90320C4
:10103000FFF7C6FB04460220FFF7C2FB054601206E
:10104000FFF7BEFB064623462A46314629A0FFF796
:1010500011F934A0FFF70EF90420FFF7B1FB0446A5
:101060000020FFF7ADFB05462246294639A0FFF7D1
:1010700001F92CA0FFF7FEF80920FFF7A1FB0446B9
:101080000520FFF79DFB0546224629463DA0FFF7B8
:10109000F1F824A0FFF7EEF80820FFF791FB0446D3
:1010A0000720FFF78DFB05460620FFF789FB064664
:1010B00023462A4631463FA0FFF7DCF870BD00000A
:1010C0000D0A00003D3D3D3D3D3D3D3D20526F62DE
:1010D0006F742050686F20446562756720496E66A2
:1010E0006F6D6174696F6E203D3D3D3D3D3D3D3D01
:1010F000090D0A003D3D20202020202020423A25D5
:1011000064202020202020433A2564202020202015
:1011100020443A25642020202020202020203D3D0E
:101120000D0A00003D3D20202020202020202020EE
:1011300020202020202020202020202020202020AF
:1011400020202020202020202020202020203D3D65
:101150000D0A00003D3D2020413A2564202020203A
:10116000202020202020202020202020202020207F
:101170002020202020202020453A256420203D3DAD
:101180000D0A00003D3D2020483A25642020202003
:10119000202020202020202020202020202020204F
:1011A00020202020202020204C3A256420203D3D76
:1011B0000D0A00003D3D20202020202020493A2516
:1011C000642020202020204A3A256420202020204E
:1011D000204B3A25642020202020202020203D3D47
:1011E0000D0A000010B51AA0FFF744F819A0FFF788
:1011F00041F825488089031123484089021122487B
:101200000089011121A0FFF735F82DA0FFF732F872
:101210001D48C08902111C488088011135A0FFF7C4
:1012200029F827A0FFF726F8174840880311164829
:10123000008802111448C08801113CA0FFF71AF879
:1012400003A0FFF717F802A0FFF714F810BD000085
:101250000D0A00003D3D3D3D3D3D3D3D20526F624C
:101260006F7420526167696E6720446562756720FC
:10127000496E666F6D6174696F6E203D3D3D3D3D09
:101280003D3D3D090D0A00001C0000203D3D202091
:1012900020202020202020202020413A25642020CA
:1012A00020202020423A2564202020202020433A7C
:1012B00025642020202020203D3D090D0A2000002B
:1012C0003D3D2020202020202020202020202020E4
:1012D000202020202020202020202020202020200E
:1012E000202020202020202020202020203D3D0DD7
:1012F0000A0000003D3D202020202020202020202A
:10130000483A256420202020202020202020202052
:1013100020202020202020202020443A2564202046
:101320002020203D3D0D0A20000000003D3D2020F2
:1013300020202020202020202020493A2564202021
:10134000202020204A3A25642020202020204B3ACB
:1013500025642020202020203D3D0D0A2000000093
:1013600000B58BB001210802FFF7F6FA00200190CA
:1013700002904FF4A06004900020039001A8FFF7B2
:10138000BFF80020059001208DF818008DF8190095
:10139000002009904FF0805007900020089009200D
:1013A0008DF8280005A92348FFF7D8F801231A462D
:1013B00000212048FFF7FCF80123022219461D48AE
:1013C000FFF7F6F80123032202211A48FFF7F0F88D
:1013D0000123042203211748FFF7EAF8012305221D
:1013E00004211448FFF7E4F80123062205211148DF
:1013F000FFF7DEF80123072206210E48FFF7D8F891
:101400000123082207210B48FFF7D2F80023092205
:101410000C210848FFF7CCF801210648FFF793F8A4
:1014200001210448FFF784F801210248FFF75CF826
:101430000BB000BD0020014000B58FB00121880530
:10144000FFF77AFA00200090092004900020039012
:101450000B9001200C901048029000200D904FF44A
:1014600000500890C0100690801009900B48019021
:1014700000200E904FF400300A9080110790002059
:10148000059069460648FFF7FDF801210448FFF77B
:10149000EDF80FB000BD00001C0000204C20014002
:1014A000106402401CB501210846FFF745FA0320ED
:1014B0008DF8040000208DF80700FF200090694699
:1014C0000448FFF70CF90420009069460248FFF732
:1014D00006F91CBD000002400008024000B589B0BA
:1014E00001210846FFF738FA00212648FFF77AFB6A
:1014F00006A8FFF713FC0020ADF82000ADF81A0095
:1015000021482249097850F831002149B1FBF0F017
:10151000401E07901C481D49097800EBC1008088D7
:10152000401E80B2ADF8180000208DF8220006A9F8
:101530001448FFF7B1FB6020ADF804000120ADF8BE
:1015400006000220ADF8100003210798B0FBF1F06F
:1015500003900420ADF808000020ADF81200ADF8AB
:101560001400ADF8160001A90648FFF757FB01214A
:101570000448FFF737FB01210248FFF73FFB09B0A2
:1015800000BD0000000001405C1700081A000020A8
:10159000007A030A1CB501213620FFF7CDF900209F
:1015A0008DF8040001208DF8070003208DF8050058
:1015B0002020009069463248FFF791F820213048FA
:1015C000FFF7FAF81020009069462D48FFF787F8DA
:1015D00010212B48FFF7F0F80220009069462948B7
:1015E000FFF77DF802212748FFF7E6F80120009079
:1015F00069462448FFF773F801212248FFF7DCF819
:101600004FF48050009069461F48FFF768F84FF488
:1016100080511D48FFF7D0F808200090694618480F
:10162000FFF75DF808211648FFF7C6F80220009082
:1016300069461348FFF753F802211148FFF7BCF839
:101640000120009069460E48FFF749F801210C4837
:10165000FFF7B2F84020009069460C48FFF73FF8CA
:1016600040210A48FFF7A8F8202000906946074863
:10167000FFF735F820210548FFF79EF81CBD000054
:101680000008024000040240001402400010024022
:1016900010B5FFF707FFFFF763FEFFF7CDFEFFF77B
:1016A0001DFF10BD10B588B0044601210846FFF7A4
:1016B00043F901211020FFF74FF9072209212248A1
:1016C000FFF755F807220A211F48FFF750F84FF49B
:1016D000C060069002208DF81C008DF81D000020CF
:1016E0008DF81E0001208DF81F0006A91648FEF790
:1016F000F6FF02940020ADF80C00ADF80E00ADF836
:101700001000ADF814000C20ADF8120002A90F482B
:10171000FFF73EFB01210D48FFF709FB012240F2D4
:1017200025510A48FFF70FFB25208DF80400032000
:101730008DF805008DF8060001208DF8070001A83E
:10174000FFF7BCF808B010BD0000024000100140D7
:101750004FF04070E1EE100A7047000080B92A0097
:101760000100000080841E000100000040420F00C4
:101770000100000020A1070001000000400D03004F
:1017800001000000A08601000100000050C300001D
:1017900001000000204E00000100000010270000A2
:1017A000010000008813000001000000A0410000BB
:1017B00005000000A04100000A000000A041000058
:1017C00014000000A041000032000000A041000011
:1017D00064000000A0410000C8000000A04100001B
:1017E000F4010000A0410000E8030000A041000057
:1017F000D0070000A041000088130000A0410000B5
:101800001027000024180008000000201C00000021
:10181000C4010008401800081C00002074060000E5
:10182000E0010008000000000000000000000000CF
:10183000000001020304010203040607080909006D
:040000050800018965
:00000001FF
