:020000040800F2
:10000000780700202902000869060008AD050008ED
:100010006506000859040008FB0D000800000000F8
:10002000000000000000000000000000310800088F
:10003000CD04000800000000E5060008490900089A
:10004000430200084302000843020008430200087C
:10005000430200084302000843020008430200086C
:10006000430200084302000843020008430200085C
:10007000430200084302000843020008430200084C
:10008000430200084302000843020008430200083C
:10009000430200084302000843020008430200082C
:1000A000430200084302000843020008430200081C
:1000B000430200084302000843020008430200080C
:1000C00043020008430200084302000843020008FC
:1000D00043020008DD0B0008430200084302000849
:1000E00043020008430200084302000843020008DC
:1000F00043020008430200084302000843020008CC
:1001000043020008430200084302000843020008BB
:1001100043020008430200084302000843020008AB
:10012000430200084302000843020008430200089B
:10013000430200084302000843020008430200088B
:10014000430200084302000843020008430200087B
:10015000430200084302000843020008430200086B
:10016000430200084302000843020008430200085B
:10017000430200084302000843020008430200084B
:10018000430200084302000800F002F800F03CF8C7
:100190000AA090E8000C82448344AAF10107DA45E2
:1001A00001D100F031F8AFF2090EBAE80F0013F0F8
:1001B000010F18BFFB1A43F0010318479C150000FC
:1001C000BC150000103A24BF78C878C1FAD852078D
:1001D00024BF30C830C144BF04680C6070470000C1
:1001E0000023002400250026103A28BF78C1FBD840
:1001F000520728BF30C148BF0B6070471FB501F0E0
:1002000051FA1FBD10B510BD00F033F81146FFF7CD
:10021000F5FF00F057FE00F051F803B4FFF7F2FFCE
:1002200003BC00F0ECFD0000094880470948004786
:10023000FEE7FEE7FEE7FEE7FEE7FEE7FEE7FEE796
:10024000FEE7FEE704480549054A064B70470000F3
:100250004D09000889010008780100207807002076
:10026000780300207803002070477047704770477C
:100270007047754600F02CF8AE46050069465346B7
:1002800020F00700854618B020B5FFF7DBFFBDE87A
:1002900020404FF000064FF000074FF000084FF0ED
:1002A000000B21F00701AC46ACE8C009ACE8C0097E
:1002B000ACE8C009ACE8C0098D46704710B50446EB
:1002C000AFF300802046BDE81040FFF7A6BF000056
:1002D000004870471801002021B1826842F00102F5
:1002E000826003E0826822F00102826070470000B1
:1002F0000021084A1168084A1140D0E900231A4336
:1003000083681A43C3681A431143044AC2F80413AA
:100310007047000004230140E030FCFF0020014052
:1003200021B1826842F48072826003E0826822F424
:1003300080728260704721B1826842F400728260EC
:1003400003E0826822F400728260704730B5024692
:10035000002000235068104C20400D790C6844EABE
:1003600005242043506090680C4C2040D1E9035490
:100370002C438D682C434D7944EA4504204390601A
:10038000D06A20F470000C7D641EE4B2234340EA7E
:100390000350D06230BD0000FFFEFFFCFDF7FFC040
:1003A000F0B504460D4600200021092D11DDE0685E
:1003B000A5F10A0606EB4607072606FA07F1884369
:1003C000A5F10A0606EB460603FA06F10843E060CB
:1003D0000CE0206905EB4507072606FA07F188437C
:1003E00005EB450603FA06F108432061072A0FDAF8
:1003F000606B561E06EB86071F2606FA07F1884338
:10040000561E06EB860605FA06F10843606322E0F5
:100410000D2A0FDA206BD61F06EB86071F2606FA79
:1004200007F18843D61F06EB860605FA06F1084356
:10043000206310E0E06AA2F10D0606EB86071F2696
:1004400006FA07F18843A2F10D0606EB860605FAC7
:1004500006F10843E062F0BD00BFFEE721B102688B
:1004600042F00102026003E0026822F00102026031
:100470007047000010B500220268134B1A40CC6888
:100480000B6823434C6923438C692343CC69234382
:100490000C6A23434C6A23438C6A23434C6B2343EB
:1004A0008C6B23431A430260426922F00702D1E9B0
:1004B0000B3423431A4342610B6943604B688360EA
:1004C0008B68C36010BD00003F801CF07047F0B522
:1004D0000A4600210023002400BF3DE0012505FA63
:1004E00001F3156805EA03049C4234D105684F0006
:1004F0000326BE40B543056015794E00B540066839
:10050000354305601579012D02D01579022D16D1DC
:1005100085684F000326BE40B543856055794E007F
:10052000B540866835438560456801268E40B543F1
:100530004560456896798E40B6B235434560C568DA
:100540004F000326BE40B543C560D5794E00B54087
:10055000C6683543C560491C1029BFD3F0BDF0B54E
:10056000002300244D07ED0E02FA05F3CE1000F132
:10057000200555F826504E07F70E0F26BE40B5430E
:10058000CF1000F1200646F82750CE1000F12005CC
:1005900055F8265045EA0304CE1000F1200545F831
:1005A0002640F0BD418370470183704700BFFEE7DE
:1005B0000146002031B1012908D002290AD00329BF
:1005C00011D10BE0094A1268D0B20DE0084A126856
:1005D000D0B209E0074A1268D0B205E0034A083AEF
:1005E0001268D0B200E000BF00BF70471002414265
:1005F000348242420C0242421CB50121502000F0DC
:1006000073F84FF4C070009001208DF804000020B2
:100610008DF806008DF8070003208DF80500694667
:100620000E48FFF754FF0220009001208DF80400CF
:1006300000208DF806008DF8070003208DF80500D6
:1006400069460748FFF743FF4FF4C0710348FFF7BF
:10065000A9FF02210248FFF7A5FF1CBD00100240C0
:100660000018024000BFFEE77047000070B500218F
:1006700000230F22C4781CB3174C246804F4E064F0
:10068000C4F5E064C4F30721C1F10404E3B20A41F4
:1006900044789C40E1B28478144021430C07210E39
:1006A0000E4C05786155047804F01F050124AC4018
:1006B00005786D11AD0005F1E025C5F8004109E0B0
:1006C000047804F01F050124AC40054D067876112E
:1006D00045F8264070BD00000CED00E000E400E0AD
:1006E00080E100E07047000029B1064A1268024329
:1006F000044B1A6004E0034A12688243014B1A60FB
:10070000704700003038024029B1064A126802439F
:10071000044B1A6004E0034A12688243014B1A60DA
:10072000704700004038024029B1064A126802436F
:10073000044B1A6004E0034A12688243014B1A60BA
:100740007047000044380240F0B500210022002428
:10075000022500260223324F3F6807F00C0121B129
:10076000042905D0082937D105E02E4F076036E06F
:100770002D4F076033E02A4F3F1F3F68C7F3805675
:10078000274F3F1F3F6807F03F036EB1264FB7FB6F
:10079000F3F7DFF88CC0ACF1040CDCF800C0CCF34C
:1007A000881C07FB0CF40CE01E4FB7FBF3F7DFF8D7
:1007B00070C0ACF1040CDCF800C0CCF3881C07FB63
:1007C0000CF4174F3F1F3F68C7F301477F1C7D00A4
:1007D000B4FBF5F7076002E0124F076000BF00BFEF
:1007E0000F4F3F6807F0F0010909104F7A5C076866
:1007F000D74047600A4F3F6807F4E051890A0B4F22
:100800007A5C4768D7408760054F3F6807F46041CE
:10081000490B064F7A5C4768D740C760F0BD0000BF
:10082000083802400024F40000127A000A00002078
:10083000704700000CB5002001900090344800681B
:1008400040F480303249086000BF3148006800F44D
:10085000003000900198401C0190009818B9019850
:10086000B0F5A04FF1D12A48006800F4003010B173
:100870000120009001E0002000900098012846D15E
:1008800023484030006840F08050214940310860E2
:100890002048006840F440401E4908601C48083069
:1008A00000681B49083108600846006840F40040B1
:1008B00008600846006840F4A05008601648091F08
:1008C0000860081F006840F08070091F086000BFC2
:1008D0000F48006800F000700028F9D040F2057061
:1008E0000E4908600A480830006820F003000849F3
:1008F000083108600846006840F00200086000BF48
:1009000003480830006800F00C000828F8D10CBD3E
:10091000003802400070004008544007003C02408C
:10092000042808D14FF0E021096941F004014FF09B
:10093000E022116107E04FF0E021096921F0040194
:100940004FF0E022116170477047000010B5154864
:10095000006840F47000134908601348006840F0D4
:1009600001001149086000200F49083108600E4855
:1009700000680E4908400C4908600D48091D0860D0
:10098000081F006820F48020091F08600020064925
:100990000C310860FFF74EFF4FF0006001498039CD
:1009A000086010BD88ED00E000380240FFFFF6FE51
:1009B0001030002421B1028842F00102028004E0DC
:1009C00002884FF6FE731A400280704731B1B0F8CA
:1009D000442042F40042A0F8442005E0B0F844204E
:1009E000C2F30E02A0F844207047000070B5002446
:1009F00000220023058C4FF6FE7635400584028CDC
:100A00008388048B4FF68F752C40B51E2C400D88C3
:100A10002C43751E2A408D892A434D882A43104D48
:100A2000A84202D00F4DA84213D14FF6F7752A40C5
:100A3000CD892A434FF6FB752A408D882A434FF60D
:100A4000FF652B404FF6FF552B400D8A2B434D8AF7
:100A50002B43838004838D684563028470BD00004E
:100A600000000140000401400A460021018B4FF6BE
:100A7000F7731940114301837047000070B50024DB
:100A800000220023058C4FF6EF7635400584028C5A
:100A90008388048B48F6FF752C404FF6FF452C40A9
:100AA0000D884FF6FF7606EA05252C434FF6DF75D5
:100AB0002A408D8906EA05152A434D8806EA051560
:100AC0002A43154DA84202D0144DA8421DD14FF61D
:100AD0007F752A40CD894FF6FF7606EA05152A4331
:100AE0004FF6BF752A408D8806EA05152A434FF652
:100AF000FF352B404FF2FF752B400D8A06EA850526
:100B00002B434D8A06EA85052B43838004838D6839
:100B10008563028470BD00000000014000040140B4
:100B20000A460021018B4FF2FF7319404FF6FF7305
:100B300003EA0223194301837047416370478163CD
:100B40007047000000220288184B98420ED0184BC4
:100B500098420BD0B0F1804F08D0164B984205D088
:100B6000154B984202D0154B984204D14FF68F7323
:100B70001A404B881A43124B984207D0114B9842A7
:100B800004D04FF6FF431A400B891A4302804B688A
:100B9000C3620B880385054B984202D0044B9842F0
:100BA00001D18B7A038601238382704700000140C4
:100BB000000401400004004000080040000C004018
:100BC00000100040001400404FF0FF314160002150
:100BD00001800181418081727047000010B540F2B0
:100BE00025511D4800F04AF810B31B4800F000F9E9
:100BF000C4B21A48008800F40040C8B917480088F9
:100C000000F4804060B10A2C03D000201349088012
:100C100020E01248008840F400401049088019E0A4
:100C20000D2C06D10D48008840F480400B49088007
:100C300010E00A480088C0F30D0009490C54074829
:100C40000088401C0549088008460088C72801DD47
:100C50000020088010BD00000010014008000020A6
:100C60002800002021B1828942F40052828104E0F0
:100C700082894DF6FF731A408281704770B5024633
:100C8000002400230025002040F66A16B14200D15E
:100C900000BFC1F3421501F01F03012606FA03F35A
:100CA000012D02D19689334006E0022D02D1168A29
:100CB000334001E0968A33400C12012606FA04F410
:100CC0001688344013B10CB1012000E0002070BD43
:100CD000F0B50346002400260025002040F66A17E0
:100CE000B94200D100BF1846C1F3421401F01F06FB
:100CF000012707FA06F5012C01D10C3004E0022C83
:100D000001D1103000E014301AB107682F4307609A
:100D100002E00768AF430760F0BD00002DE9FF4720
:100D200005460E460024A14600BFA046B08900B18A
:100D300000BF2C8A24F44054F08804432C82AC89F0
:100D400041F20C608443B0883189084371890843BB
:100D50000443AC81AC8A24F44074B0890443AC826F
:100D60006846FFF7F1FC2048854202D01F488542C3
:100D700002D1DDF80C9001E0DDF80890A88900F4BC
:100D8000004040B109EBC90000EB0910316849008F
:100D9000B0FBF1F707E009EBC90000EB091031687F
:100DA0008900B0FBF1F76420B7FBF0F004012009E3
:100DB000642101FB1078A88900F4004040B1322082
:100DC00000EBC800B0FBF1F000F00700044308E0BE
:100DD000322000EB08106421B0FBF1F000F00F00AE
:100DE00004432C81BDE8FF8700100140001401403E
:100DF00001468888C0F30800704700BFFEE700BFC7
:100E00007047000010B504466FF00400FFF788FD3E
:100E1000E11704EB5171C1F3C701074A1170104685
:100E2000007800EB4001C1EBC0104FF6FF7101EA02
:100E3000C0000249088010BD000000200200002010
:100E400070B504464FF4077094FBF0F0C6B24FF44F
:100E5000077094FBF0F100FB114085B205E04FF400
:100E6000077000F009F8701EC6B2002EF7D115B158
:100E7000284600F001F870BD0146114A12884A4325
:100E80004FF0E0235A6100229A611A46126942F03B
:100E900001021A6100BF4FF0E022106900F0010268
:100EA0001AB100F48032002AF5D04FF0E022126926
:100EB00022F001024FF0E0231A6100229A6170478C
:100EC00002000020A820FFF79DFFFFF795FB4FF4DD
:100ED000E13000F091FB01200C4908604FF4FA70FA
:100EE000FFF7AEFF00200A49C1F8840200F040FB82
:100EF00000F0FEFA00F082F807E006480068C04300
:100F00000549C1F8A00200F009F8F6E7840243425F
:100F100000004342A00242420000424210B50020BD
:100F2000FFF746FB90B1002000F03AF93048007816
:100F300001285CD02F480088401C2E4908802C488E
:100F4000007840F001002A49087050E00120FFF7C6
:100F50002FFB90B1012000F023F9254800780228EA
:100F600045D024480088401C224908802048007849
:100F700040F002001E49087039E00220FFF718FB1C
:100F800090B1022000F00CF91948007803282ED007
:100F900018480088401C174908801548007840F020
:100FA00003001349087022E00320FFF701FB90B112
:100FB000032000F0F5F80E480078012817D00D48FE
:100FC0000088401C0B4908800948007840F0010067
:100FD000074908700BE0C820074948608860002076
:100FE00000F044F80020044948750149087010BD1C
:100FF0001C0000201E0000200001002010B500F0A1
:1010000005F800F04BF800F0A3F810BD1CB5012165
:101010001220FFF769FB4FF44070009001208DF81B
:10102000040000208DF8060001208DF80700032041
:101030008DF8050069460B48FFF749FA0320009038
:1010400001208DF8040000208DF8060001208DF8A5
:10105000070003208DF8050069460348FFF737FABB
:101060001CBD0000000402400010024010B5044600
:1010700000F088FA074841680748FFF760FD054817
:1010800081680548FFF759FD002C02DD2046FFF777
:10109000D7FE10BD000100200008004000B58BB055
:1010A00001210220FFF720FB01210420FFF72CFB88
:1010B000022206212448FFF752FA02220721224881
:1010C000FFF74DFAC020099002208DF8280000207B
:1010D0008DF82A0001208DF82B0003208DF82900BF
:1010E00009A91948FFF7F3F90020ADF82000ADF881
:1010F0001A0040F2E73007900520ADF8180006A965
:101100001248FFF71FFD7020ADF804000220ADF873
:1011100010000120ADF806003220039001A90B4811
:10112000FFF764FC01A90948FFF7A8FC082107485C
:10113000FFF79AFC08210548FFF7F2FC012103485C
:10114000FFF738FC0BB000BD00040240000800406F
:1011500010B50120114908708870C8704FF47A707A
:1011600048604010886000200875487508730120A9
:10117000487008464078012803D14FF48270086116
:1011800007E006484078022803D14FF4C8700349AD
:1011900008610020FFF76AFF10BD00000001002079
:1011A00010B5044634B1012C2AD0022C4AD0032CAD
:1011B0007DD169E00220474908708870C8700846F0
:1011C0004078022809D14FF4C87048604FF4BE70CF
:1011D00088606420FFF74AFF11E03E48407801280C
:1011E0000DD14FF496703B4948608860C820FFF7E6
:1011F0003DFF01203749C8703220FFF737FF67E015
:101200000220344908708870C87008464078022867
:1012100009D14FF4BE7048604FF4C87088606420F4
:10122000FFF724FF0DE02B484078012809D14FF447
:101230008270284948604FF4C8708860C820FFF762
:1012400015FF45E00120234908708870C8700846E2
:101250004078022809D14FF4C87048604FF4BE703E
:1012600088606420FFF702FF0DE01A4840780128EB
:1012700009D14FF4C870174948604FF482708860F4
:10128000C820FFF7F3FE23E00120124908708870A0
:10129000C8700846407802280AD14FF4BE704860F2
:1012A0004FF4C87088606420FFF7E0FE0EE00EE0A7
:1012B00008484078012809D14FF4827005494860F8
:1012C0004FF4C8708860C820FFF7D0FE00E000BF70
:1012D00000BF10BD0001002000B58BB00121080245
:1012E000FFF722FA0020019002904FF4A0600490D2
:1012F0000020039001A8FEF7FBFF002005900120CD
:101300008DF818008DF81900002009904FF08050DA
:1013100007900020089008208DF8280005A9204893
:10132000FFF714F801231A4600211D48FFF738F88B
:101330000123022219461A48FFF732F8012303223B
:1013400002211748FFF72CF8012304220321144837
:10135000FFF726F80123052204211148FFF720F8A2
:101360000123062205210E48FFF71AF80123072260
:1013700006210B48FFF714F801230822072108482B
:10138000FFF70EF801210648FEF7D5FF01210448BA
:10139000FEF7C6FF01210248FEF79EFF0BB000BD1D
:1013A0000020014000B58FB001218805FFF79CF9AE
:1013B0000020009008200490002003900B90012052
:1013C0000C901048029000200D904FF400500890AF
:1013D000C0100690801009900B48019000200E90DC
:1013E0004FF400300A908011079000200590694664
:1013F0000648FFF73FF801210448FFF72FF80FB028
:1014000000BD0000F00000204C20014010640240AC
:101410001CB501210846FFF767F903208DF8040089
:1014200000208DF807007F20009069460148FFF7F3
:101430004EF81CBD0000024000B589B001210846ED
:10144000FFF772F900212648FFF7B4FA06A8FFF764
:10145000BBFB0020ADF82000ADF81A00214822495E
:10146000097850F831002149B1FBF0F0401E079097
:101470001C481D49097800EBC1008088401E80B2DD
:10148000ADF8180000208DF8220006A91448FFF7D7
:1014900059FB6020ADF804000120ADF806000220E1
:1014A000ADF8100003210798B0FBF1F00390042081
:1014B000ADF808000020ADF81200ADF81400ADF84A
:1014C000160001A90648FFF791FA01210448FFF729
:1014D00071FA01210248FFF779FA09B000BD000056
:1014E00000000140B016000824000020007A030A22
:1014F0001CB501213620FFF7F7F800208DF8040015
:1015000001208DF8070003208DF8050010200090C1
:1015100069461448FEF7DBFF10211248FFF744F834
:101520004FF40050009069460F48FEF7D0FF4FF48B
:1015300000510D48FFF738F80820009069460B4825
:10154000FEF7C5FF08210948FFF72EF80420009098
:1015500069460448FEF7BBFF04210248FFF724F860
:101560001CBD0000000802400014024000100240B0
:1015700010B5FFF74DFFFFF7AFFEFFF713FFFFF7C3
:101580005BFF10BD19488078012802D0022810D1D5
:1015900007E001201649086000201649C1F88402BE
:1015A00007E000201249086001201249C1F88402B6
:1015B00000BF00BF0D48C078012802D0022812D118
:1015C00008E001200A49091F086000200949C1F804
:1015D000800208E000200649091F08600120054933
:1015E000C1F8800200BF00BF70470000000100206A
:1015F000A48240420000424210B588B00446012156
:101600000846FFF771F801211020FFF78DF8072237
:1016100009212248FEF7A3FF07220A211F48FEF7EF
:101620009EFF4FF4C060069002208DF81C008DF8DC
:101630001D0000208DF81E0001208DF81F0006A956
:101640001648FEF744FF02940020ADF80C00ADF8F8
:101650000E00ADF81000ADF814000C20ADF812002B
:1016600002A90F48FFF75AFB01210D48FFF7FAFACC
:10167000012240F225510A48FFF72AFB25208DF868
:10168000040003208DF805008DF8060001208DF878
:10169000070001A8FEF7EAFF08B010BD00000240F5
:1016A000001001404FF04070E1EE100A704700005A
:1016B00080B92A000100000080841E0001000000A3
:1016C00040420F000100000020A1070001000000BF
:1016D000400D030001000000A08601000100000091
:1016E00050C3000001000000204E00000100000077
:1016F0001027000001000000881300000100000016
:10170000A041000005000000A04100000A00000008
:10171000A041000014000000A041000032000000C1
:10172000A041000064000000A0410000C8000000CB
:10173000A0410000F4010000A0410000E803000007
:10174000A0410000D0070000A04100008813000065
:10175000A0410000102700007817000800000020BA
:1017600028000000C4010008A0170008280000207D
:1017700050070000E0010008000000000000000029
:101780000000000000000102030401020304060738
:101790000809000000000000000000000300000035
:040000050800018965
:00000001FF
